:020000040000FA
:100000000400C80C0200000C060066002605460528
:1000100006047200730074007500FE0C3200FE0CC2
:100020003300FE0C34006606130A04006100660605
:10003000130AE106170A61006606130AE1061C0AA4
:10004000040085096607200A250A160C24006606A6
:10005000270A60096002A40260096002160C2400ED
:10006000000C800143063D0A190C800143063D0A3D
:100070001502800143063D0A200A170C2400800661
:10008000480AE0065409C0065809A0065C09200A7F
:100090000002E00E3000000C90014306500A200AD6
:1000A00000020F0E3500200A7109FF0F3200000810
:1000B0007109FF0F330000087109FF0F34000008B9
:1000C000080C310085096607630A61006606660A46
:1000D000010230007003700370036003F102620AD2
:1000E000000800020F0EE20100080108110849088B
:1000F0005508570877087F08FF08FF08FF08FF0822
:10010000FF08FF08FF08FF08000872031204030637
:1001100012050605030706047303130403061305FB
:100120002605030726047403140403061405460574
:100130000307460400082408490864083A08200810
:100140006D08610869086E082E08610873086D085B
:100150002C087608200831082E08320820083208BA
:100160003008300837082F08300831082F083208C7
:1001700035082008310836083A08320831083A08AC
:10018000320837082008740867086908700873087F
:100190006F086E08200845087808700820082408B1
:00000001FF
