:020000040000FA
:100000000D0A760831082E0832082008740867089F
:100010006908700873086F086E08FE0E2500480C0A
:100020000200000C0600E306340A6306180A990A67
:1000300004000B0C260075007900FF0C3200330021
:100040003400360037003800800C310070000400A6
:10005000F002270AF102270A66062C0A0400610052
:1000600066062C0AE106300A040066063F0AE20929
:1000700066063F0AEA0966063F0AF209340A1A0CC4
:1000800024006606410A6100080C3100D8096607A1
:10009000470A610266064A0A0102300061007003E5
:1000A0006003F102460AA402080C3100D809660771
:1000B000570A610266065A0A0102300061007003A5
:1000C0006003F102560AE400000C80014306710A45
:1000D0001A0C80014306710A150280014306710A59
:1000E000340A1B0C2400E0067C0AC006B909A006ED
:1000F000BD098006C109340AC006810AA006850A26
:10010000910A00023F0E3500340A80068C0A000274
:100110000F0E37005905340A00020F0E380039055A
:10012000340A8006B40A40069E0A2006A80A000780
:10013000340A480C070D020006020300480CBF0EEB
:10014000020070000400F002A20A480C0200340A07
:10015000160C24001906B909A4025906BD09A40207
:100160003906C1097900340A00020F0E360019055C
:10017000340AC509FF0F32000008C509FF0F33001C
:100180000008C509FF0F3400000800020F0EE2014D
:1001900000080108110849085508570877087F0822
:1001A000FF08FF08FF08FF08FF08FF08FF08FF0817
:1001B0001102E201EA0AF20AE20AEA0AF20AE20A91
:1001C000EA0AF20A7203120403061205060503077F
:1001D000060400087303130403061305460503070A
:1001E00046040008740314040306140526050307D7
:0401F00026040008D9
:00000001FF
