:020000040000FA
:10000000010A0400C80C0200000C06006600260568
:10001000460406057200730074007500FF0C320080
:10002000FF0C3300FF0C3400800C31007000040022
:10003000F002170AF102170A66061C0A04006100A2
:1000400066061C0AE106200A610066061C0AE10633
:10005000250A04006606340AA9096606340AB109AD
:100060006606340AB909290A160C24006606360AFF
:100070006100080C31009F0966073C0A61026606B0
:100080003F0A01023000610070036003F1023B0A85
:100090006100A402080C31009F0966074D0A610245
:1000A0006606500A01023000610070036003F1022D
:1000B0004C0AE400000C80014306670A190C800119
:1000C0004306670A150280014306670A290A170CCE
:1000D0002400E006720AC0067F09A0068309800694
:1000E0008709290A0002C00E3000C00C90014306A7
:1000F0007A0A290A00023F0E3500290A00088B09F6
:10010000FF0F320000088B09FF0F330000088B0936
:10011000FF0F3400000800020F0EE2010008010882
:10012000110849085508570877087F08FF08FF0895
:10013000FF08FF08FF08FF08FF08FF08000811027A
:10014000E201B10AB90AA90AB10AB90AA90AB10AAF
:10015000B90A720312040306120506050307060412
:10016000000873031304030613052605030726047A
:100170000008740314040306140546050307460427
:04018000000800086B
:00000001FF
