:020000040000FA
:100000000400C80C0200000C060066002605460528
:1000100006047200730074007500FE0C3200FE0CC2
:100020003300FE0C34006606130A04006100660605
:10003000130AE106170A61006606130AE1061C0AA4
:10004000040080096607200A160C24006606260AAA
:100050005109A4025109160C2400000C800143062A
:100060003A0A190C800143063A0A15028001430638
:100070003A0A200A170C24008006450AE0066009A7
:10008000C0066409A0066809200A0002E00E3000DC
:10009000000C900143064D0A200A00020F0E3500A5
:1000A000200A080C310061006607540A61026606E6
:1000B000570A0102300070036003F102530A00087E
:1000C0006C09FF0F320000086C09FF0F33000008B5
:1000D0006C09FF0F3400000800020F0EE201000857
:1000E0000108110849085508570877087F08FF08D4
:1000F000FF08FF08FF08FF08FF08FF08FF080008C7
:1001000072031204030612050605030706047303AF
:1001100013040306130526050307260474031404B9
:100120000306140546050307460400082408490889
:1001300064083A0820086D08610869086E082E08EE
:10014000610873086D082C087608200831082E080D
:100150003308200832083008300837082F083108E3
:1001600030082F08300833082008300834083A08CF
:10017000340831083A083508300820087408670840
:100180006908700873086F086E0820084508780829
:060190007008200824089D
:00000001FF
