:020000040000FA
:100000000D0A760831082E083108200874086708A0
:100010006908700873086F086E08FE0E2500480C0A
:100020000200000C0600E306340A6306180A990A67
:1000300004000B0C260075007900FF0C3200330021
:100040003400360037003800800C310070000400A6
:10005000F002270AF102270A66062C0A0400610052
:1000600066062C0AE106300A040066063F0AE50926
:1000700066063F0AED0966063F0AF509340A1A0CBE
:1000800024006606410A6100080C3100DB0966079E
:10009000470A610266064A0A0102300061007003E5
:1000A0006003F102460AA402080C3100DB0966076E
:1000B000570A610266065A0A0102300061007003A5
:1000C0006003F102560AE400000C80014306710A45
:1000D000010C80014306710A150280014306710A72
:1000E000340A1B0C2400E0067C0AC006BC09A006EA
:1000F000C0098006C409340AC006810AA006850A20
:10010000910A00023F0E3500340A80068C0A000274
:100110000F0E37003905340A00020F0E380059055A
:10012000340A8006B70A40069E0A2006AB0A00077A
:10013000340A480C070D020006020300480CBF0EEB
:10014000020070000400F002A20A480C0200040041
:100150006606A70A340A160C24001906BC09A40274
:100160003906C009A4025906C4097900340A0002FC
:100170000F0E36001905340AC809FF0F32000008B7
:10018000C809FF0F33000008C809FF0F340000083A
:1001900000020F0EE2010008010811084908550885
:1001A000570877087F08FF08FF08FF08FF08FF08C7
:1001B000FF08FF08FF081102E201ED0AF50AE50A4F
:1001C000ED0AF50AE50AED0AF50A720312040306C0
:1001D000120506050307060400087303130403064B
:1001E00013052605030726040008740314040306F8
:0A01F0001405460503074604000845
:00000001FF
