:020000040000FA
:10000000400A2408490864083A0820086D08610875
:1000100069086E082E08610873086D082C087608B8
:10002000200831082E08340820083208300830082B
:1000300037082F08310830082F0830083308200807
:10004000300836083A08300830083A0835083108D0
:100050002008740867086908700873086F086E083C
:0C006000200845087808700820082408D3
:1000800004007E0C2500C80C0200000C060066006F
:100090002605460406057200730074007500FE0C08
:1000A0003200FE0C3300FE0C34006606550A0400D4
:1000B00061006606550AE106590A61006606550A9E
:1000C000E1065E0A0400C3096607620A160C2400F2
:1000D0006606680A9309A4029309160C2400000C12
:1000E000800143067C0A190C800143067C0A150234
:1000F000800143067C0A620A170C2400E006870A86
:10010000C006A309A006A7098006AB09620A00027F
:10011000C00E3000C00C900143068F0A620A000234
:100120003F0E3500620A080C31006100C309660702
:10013000970A610266069A0A0102300070036003A2
:10014000F102950A0008AF09FF0F32000008AF095D
:10015000FF0F33000008AF09FF0F34000008000252
:100160000F0EE20100080108030807080F081F0826
:100170003F087F08FF08FF08FF08FF08FF08FF0887
:10018000FF08FF08000872031204030612050605A3
:100190000307060473031304030613052605030768
:1001A00026047403140403061405460503074604D5
:0201B000000845
:00000001FF
