:020000040000FA
:100000000D0A760831082E083108200874086708A0
:100010006908700873086F086E08FE0E2500C80C8A
:1000200002006306160A8307B40A350A0400000CAE
:1000300006000E0C2600750079004000FF0C32000F
:1000400033003400360037003800800C3100700077
:100050000400F002280AF102280A66062D0A0400AC
:10006000610066062D0AE106310A04006606400AB0
:10007000E7096606400AEF096606400AF709350AED
:100080001A0C24006606420A6100080C3100DD09E2
:100090006607480A610266064B0A010230006100E9
:1000A00070036003F102470A6100A402080C3100EA
:1000B000DD096607590A610266065C0A0102300022
:1000C000610070036003F102580AE400000C800133
:1000D0004306730A010C80014306730A150280016E
:1000E0004306730A350A1B0C2400E0067E0AC0068C
:1000F000BE09A006C2098006C609350AC006840AE0
:10010000A006880A940A350A00023F0E3500350A17
:1001100080068F0A00020F0E37003905350A0002EB
:100120000F0E38005905350A8006B90A40069C0AA8
:100130002006A80A0007350AC80CBF0E020070008E
:100140000400F002A00AC80C02006606A50A350ADF
:10015000160C24001906BE09A4023906C209A4021D
:100160005906C6097900350AC80C7F0E020006023E
:10017000030000020F0E36001905350ACA09FF0FE9
:1001800032000008CA09FF0F33000008CA09FF0F38
:100190003400000800020F0EE201000801081108F7
:1001A00049085508570877087F08FF08FF08FF0827
:1001B000FF08FF08FF08FF08FF081102E201EF0A2D
:1001C000F70AE70AEF0AF70AE70AEF0AF70A7203E3
:1001D000120403061205060503070604000873034C
:1001E00013040306130526050307260400087403F9
:0E01F000140403061405460503074604000820
:00000001FF
