:020000040000FA
:100000000400C80C0200000C060066002605460528
:1000100006047200730074007500FE0C3200FE0CC2
:100020003300FE0C34006606130A04006100660605
:10003000130AE106170A61006606130AE1061C0AA4
:10004000040032096607200A480A700000020F0EF9
:100050003100000D4306300A03057003F1022C0A3B
:100060007002000872031204030612050605030756
:100070000604730313040306130526050307260469
:100080007403140403061405460503074604000818
:10009000160C240066064A0A83096002A40283093A
:1000A0006002160C2400000C80014306600A120C4A
:1000B00080014306600A150280014306600A200A97
:1000C000170C240080066B0AE0067709C0067B093E
:1000D000A0067F09200A0002E00E3000000C90010B
:1000E0004306730A200A00020F0E3500200A250974
:1000F000100232000008250910023300000825090B
:10010000100234000008080C310032096607860A24
:1001100061006606890A01023000700370037003F3
:080120006003F102850A0008EA
:00000001FF
