:020000040000FA
:10000000400A2408490864083A0820086D08610875
:1000100069086E082E08610873086D082C087608B8
:10002000200831082E083608200832083008300829
:1000300037082F08310830082F0830083808200802
:10004000310839083A08330839083A0835083608BB
:100050002008740867086908700873086F086E083C
:0C006000200845087808700820082408D3
:1000800004007E0C2500C80C0200000C060066006F
:1000900026054604060575004000FF0C32003300BB
:1000A0003400800C310070000400F002540AF102A8
:1000B000540A6606590A040061006606590AE106F8
:1000C0005D0A040066066C0AE00966066C0AE80927
:1000D00066066C0AF009610A160C240066066E0AB0
:1000E0006100080C3100D6096607740A61026606D1
:1000F000770A01023000610070036003F102730AA5
:100100006100A402080C3100D6096607850A610265
:100110006606880A01023000610070036003F10284
:10012000840AE400000C800143069F0A010C800150
:1001300043069F0A1502800143069F0A610A170CB5
:100140002400E006AA0AC006B609A006BA0980067D
:10015000BE09610A0002C00E3000C00C90014306C7
:10016000B20A610A00023F0E3500610AC209FF0FA0
:1001700032000008C209FF0F33000008C209FF0F58
:100180003400000800020F0EE20100080108110807
:1001900049085508570877087F08FF08FF08FF0837
:1001A000FF08FF08FF08FF08FF0800081102E2012E
:1001B000E80AF00AE00AE80AF00AE00AE80AF00AA7
:1001C000720312040306120506050307060400085D
:1001D000730313040306130526050307260400080A
:1001E00074031404030614054605030746040008B7
:00000001FF
