:020000040000FA
:040800003FEF04F0D2
:080818003FEF04F02449643AAB
:1008200020737472696E675F6D2E696E632C76201B
:10083000312E3120323030352F30372F32392031C0
:10084000343A35383A35322074676970736F6E20E8
:1008500045787020240D0A000900F550E86632EF53
:1008600004F0120087EC06F02CEF04F00900F550BC
:10087000E8663CEF04F01200EE6E36EF04F0D19023
:100880004BEC05F073EC06F02CEC06F0000ED36E8A
:10089000000EF86E320EF76E740EF66E2CEC04F04D
:1008A0008CEC06F07CEC07F081EC05F08182000E08
:1008B0001F6E1E6A000E1D6E216A226A236A8EEF69
:1008C00004F0CFEF04F0000E6AEC07F01850BEEC15
:1008D00006F01950BEEC06F08CEC06F00A0E192654
:1008E000E86A182218B07AEF04F0040E1E6E191E82
:1008F0007CEF04F0010E1E6E0F0E1916D8901932FF
:10090000D8901932D890193219C01DF0FDEC04F0BE
:100910001E1E1D6AFDEC04F063EF04F067EC09F0A5
:10092000000EF86E110EF76EB20EF66E2CEC04F09F
:10093000000EF86E120EF76E300EF66E2CEC04F010
:10094000A4EF04F0A0EF04F0827016EC19F080EC34
:1009500018F080EC18F080EC18F080EC18F080ECC7
:1009600018F080EC18F080EC18F080EC18F080ECB7
:1009700018F02AEC19F080EC18F080EC18F080ECFC
:1009800018F080EC18F080EC18F080EC18F080EC97
:1009900018F080EC18F080EC18F0A0EF04F0C0EC38
:1009A00008F0D2EC07F00D0E0C1810E0070E1E1622
:1009B0001E505DEC07F08CEC06F01D505DEC07F06E
:1009C0008CEC06F0FDEC04F0CFEF04F00A0E0D6E97
:1009D000000E1D6E1D2AFDEC04F00D2EEAEF04F052
:1009E0000A0E0D6E1D06FDEC04F00D2EF2EF04F064
:1009F00081EC05F01E2AE6EF04F01E505DEC07F0D6
:100A0000200E87EC06F087EC06F01D505DEC07F039
:100A1000200E87EC06F087EC06F01D500F0B206EC1
:100A20001E50070BE83A20129BEC07F0000EF86E00
:100A3000320EF76EE60EF66E2CEC04F01F50BEEC94
:100A400006F0200E87EC06F087EC06F020505DECF7
:100A500007F08CEC06F012002CEF05F02449643A04
:100A600020706F7274732E696E632C7620312E3273
:100A700020323030352F30372F33312032313A3376
:100A8000313A33312074676970736F6E2045787026
:100A900020240D0A00000E0EC16E949C948E939635
:100AA00094909380939212002449643A2064656C78
:100AB00061792E696E632C7620312E3220323030EF
:100AC000352F30372F33312032313A33313A333109
:100AD0002074676970736F6E2045787020240D0A4A
:100AE0000000170E026E020E036E060E046E042E38
:100AF00077EF05F0032E75EF05F0022E73EF05F08A
:100B0000000C020E026E800E036E700E046E042E38
:100B100087EF05F0032E85EF05F0022E83EF05F039
:100B2000000C030E036E080E046E042E95EF05F004
:100B3000032E93EF05F0000C050E026E130E036EEC
:100B4000080E046E042EA2EF05F0032EA0EF05F0B0
:100B5000022E9EEF05F0000C050E026E130E036EC2
:100B6000040E046E042EB2EF05F0032EB0EF05F074
:100B7000022EAEEF05F0000C040E026E050E036EA1
:100B8000040E046E042EC2EF05F0032EC0EF05F034
:100B9000022EBEEF05F0000C040E026E050E036E71
:100BA000020E046E042ED2EF05F0032ED0EF05F0F6
:100BB000022ECEEF05F0000C9CEC05F09CEC05F04D
:100BC0009CEC05F09CEC05F09CEC05F09CEC05F031
:100BD0009CEC05F09CEC05F09CEC05F09CEC05F021
:100BE0009CEC05F09CEC05F09CEC05F09CEC05F011
:100BF0009CEC05F09CEC05F09CEC05F09CEC05F001
:100C00009CEC05F0120081EC05F081EC05F081EC24
:100C100005F081EC05F081EC05F081EC05F081EC4C
:100C200005F081EC05F081EC05F081EC05F081EC3C
:100C300005F081EC05F081EC05F081EC05F081EC2C
:100C400005F081EC05F081EC05F081EC05F081EC1C
:100C500005F081EC05F01200056A052E2DEF06F077
:100C60001200400E056E052E33EF06F01200200E26
:100C7000056E052E39EF06F01200100E056E052EDA
:100C800039EF06F01200080E056E052E39EF06F05A
:100C90001200440E056E052E4BEF06F01200010EF9
:100CA000056E052E51EF06F012002449643A2034F7
:100CB000323230756172742E696E632C7620312E5B
:100CC0003120323030352F30372F32392031343A1D
:100CD00035383A35322074676970736F6E20457805
:100CE0007020240D0A00AB9EAB9AAB98948E949C16
:100CF000000EB06E100EAF6EB886AC84AC8EAC9C9D
:100D0000AC9AAC98AB9CAB8EAC8AAB881200ACA210
:100D100087EF06F0AD6E12000D0E87EC06F00A0E9E
:100D200087EC06F012009EAA93EF06F0AE50120078
:100D30009EAA000CAE50FF0C9EAA000CAE501200F2
:100D40002449643A206C636D68657830312E696E91
:100D5000632C7620312E3120323030352F30372F32
:100D600032392031343A35383A3532207467697077
:100D7000736F6E2045787020240D0A00086EF00E07
:100D80000814096E0938CAEC06F00F0E0814CAECF4
:100D900006F01200096E0908D8B0D6EF06F0D1EFC0
:100DA00006F0370E092487EC06F01200300E0924F5
:100DB00087EC06F012000A50066E4008D8B0E8EF43
:100DC00006F0E3EF06F0370E065E063AEDEF06F0AA
:100DD000300E065E063AEDEF06F00650000E0B50A0
:100DE000076E4008D8B0FDEF06F0F7EF06F0370EBB
:100DF000075E0750062603EF07F0300E075E075028
:100E0000062603EF07F00750BEEC06F0065012006E
:100E10002449643A20646566732E696E632C7620DB
:100E2000312E3220323030352F30372F33312032CF
:100E3000313A33313A33312074676970736F6E2001
:100E400045787020240D0A002449643A20766172A6
:100E5000732E696E632C7620312E3220323030357D
:100E60002F30372F33312032313A33313A3331207A
:100E700074676970736F6E20457870202400244970
:100E8000643A2073656E6462696E2E696E632C76B7
:100E900020312E3120323030352F30372F3239206B
:100EA00031343A35383A35322074676970736F6E71
:100EB0002045787020240D0A00000C6E080E016E8B
:100EC000300E0CBE310E87EC06F00C46012E60EFA2
:100ED00007F0120075EC07F0C282C2B26DEF07F0A6
:100EE000C450186EC350196E1200D890E832D890D2
:100EF000E832E880C26E1200BE0EC06E1200EA50E8
:100F0000BEEC06F0E950BEEC06F0200E87EC06F0D1
:100F1000E250BEEC06F0E150BEEC06F0200E87EC8D
:100F200006F0DA50BEEC06F0D950BEEC06F08CECC0
:100F300006F0120012002CEC06F0CBEC07F01F506C
:100F4000A6EC07F02050A6EC07F01200006E080E89
:100F5000016E0036D8A0BAEF07F081963DEC06F09E
:100F60003DEC06F0818643EC06F08196012EA9EF58
:100F700007F0120081963DEC06F03DEC06F081860C
:100F80003DEC06F03DEC06F03DEC06F08196012EBE
:100F9000A9EF07F0120081863DEC06F03DEC06F06B
:100FA00081961200000EF86E110EF76EB20EF66EFC
:100FB0002CEC04F0000EF86E120EF76E300EF66E8A
:100FC0002CEC04F0000EF86E120EF76E740EF66E36
:100FD0002CEC04F093EC06F00C6EF2EF07F09CECB6
:100FE00006F00C6E200E0C1831E0520E0C1830E09A
:100FF000470E0C182FE0420E0C182EE02B0E0C188A
:101000002DE02D0E0C182CE0300E0C182BE0310EBC
:101010000C182BE0320E0C182BE0410E0C182FE0B0
:10102000450E0C1842E02A0E0C1825E02F0E0C1865
:1010300024E0530E0C185BE04E0E0C186BE0580EBB
:101040000C184FE05A0E0C184FE012001E2A120026
:101050001E7412001E7212001E7012001D2A120051
:101060001D061200000E1F6E1200010E1F6E1200F0
:10107000020E1F6E12001F2A12001F061200000E21
:10108000F86E120EF76EB80EF66E2CEC04F093ECC0
:1010900006F00A6E87EC06F093EC06F00B6E87EC18
:1010A00006F0DBEC06F01F6E1200000EF86E120E5A
:1010B000F76EC00EF66E2CEC04F093EC06F00A6EA0
:1010C00087EC06F093EC06F00B6E87EC06F0DBEC99
:1010D00006F00F0B8009206ECEEC08F09BEC07F0B9
:1010E000120016EC19F012002AEC19F0120001EEB1
:1010F00004F0070EEE6EEE6EEE6E01EE0CF0070ED3
:10110000EE6E01EE15F0070EEE6E01EE1EF0070E0C
:10111000EE6E120001EE04F0000EEE6EEE6EEE6E5C
:1011200001EE0CF0000EEE6EEE6EEE6E01EE14F0BF
:10113000000EEE6EEE6EEE6E01EE1CF0000EEE6E28
:10114000EE6EEE6E1200212AACEF08F0222AACEF10
:1011500008F0232AACEF08F01E6A1E8421C01DF09F
:10116000FDEC04F01E6A1E8222C01DF0FDEC04F0AE
:101170001E6A1E8023C01DF0FDEC04F01E6A1200E2
:10118000000EF86E120EF76EB80EF66E2CEC04F030
:101190001F50BEEC06F08CEC06F012008CEC06F052
:1011A0001F505DEC07F020505DEC07F08CEC06F072
:1011B00012003C73706163653E206368616E676511
:1011C00020636F6C6F72200D0A2B202020202020BE
:1011D000206272696768746E6573732075700D0A9A
:1011E0002D202020202020206272696768746E659F
:1011F000737320646F776E0D0A522F472F422020A1
:1012000020746F67676C6520636F6C6F720D0A2ABC
:1012100020616E64202F206368616E6765206164C1
:101220006472207570206F7220646F776E0D0A00F3
:1012300041202020202020736574206578706C691F
:1012400063697420616464726573730D0A452020BC
:1012500020202020207365742074617267657427D4
:10126000732067726F757020616464726573730DAB
:101270000A0D0A0072202020202020696E6320724F
:101280006564206F6E6C790D0A6720202020202075
:1012900020696E6320677265656E206F6E6C790DD4
:1012A0000A622020202020696E6320626C75652010
:1012B0006F6E6C790D0A0000416464723A20000080
:1012C00047726F757020616464723A20000011EEFD
:1012D00000F0000EF86E320EF76EF20EF66E090098
:1012E000F5CFE6FFE66AE66AE66AE66AE66AE66A75
:1012F000E66AF5666FEF09F0000EF86E300EF76ED5
:10130000000EF66E120080EC18F083EF09F0000E6C
:10131000F86E300EF76E000EF66E1200F62A080018
:06132000F5500F0B120056
:103000000108040006040008020002000102010099
:10301000070500010301020002010100030100068F
:103020000500040200040103080007060607000566
:10303000000400030400010701020007060607035D
:103040000203000004000106000000000500000368
:10305000000603030005020703000608000500053B
:103060000001000401000800060207000303000835
:103070000000000103010000000008070508050129
:103080000007000003070006030600080303020010
:103090000008020100050208030400000700070001
:1030A00001010407000201000300000002030306FF
:1030B00002000800060300070003060104010001E6
:1030C00003010802000004010205000807020200D3
:1030D00002030000080407060301010400000205C2
:1030E00007070705020001070000040806000505A0
:1030F00000060001050308000305010302040101A5
:103100002CEC06F02CEC06F02CEC06F02CEC06F087
:103110002CEC06F001EE00F011EE00F0040EE126BA
:10312000E86AE222EE50D8B412001F6E040E1E6E42
:10313000E650EF5C0BE005E2EF2AEECF1DF0A9EFC1
:1031400018F0EF06EECF1DF0A9EF18F0EE50ABEF40
:1031500018F0FDEC04F01E421EAE98EF18F0040EBD
:10316000E926E86AEA22050EE126E86AE22292EF01
:1031700018F000EEFCF011EE00F021EE0CF07FEC08
:1031800007F0E650D8B412001F6EBEEC06F08CECCF
:1031900006F0030EE126E86AE222030E0C6EE75009
:1031A00006E0E706DF2AE75002E0E706EF2AEE50E6
:1031B000E650DE500C2ECFEF18F0050EE926E86A37
:1031C000EA22E650050ED926E86ADA22690E87EC73
:1031D00006F0BFEF18F001EE00F011EE00F0040E63
:1031E000E126E86AE222EE50D8B412001F6E040E07
:1031F0001E6EE650EE6E1D6EFDEC04F0020E1E6EAD
:10320000E650EE6E1D6EFDEC04F0010E1E6EE650F3
:10321000EE6E1D6EFDEC04F0040EE926E86AEA226B
:10322000050EE126E86AE222F3EF18F001EE00F065
:10323000EE50D8B41200EE50EE50EE508EEC09F085
:10324000EE6E8EEC09F0EE6E8EEC09F0EE6EEE5046
:1032500018EF19F001EE00F0EE50D8B41200EE5065
:10326000EE50EE50000EEE6EEE6EEE6EEE502CEF67
:1032700019F012002449643A206D61696E2E617361
:103280006D2C76204920646F6E2774206B6E6F77EB
:103290002C20435653207365727665722069732023
:1032A00062726F6B656E2E2E2E20240D0A0024494B
:1032B000643A206D61696E2E61736D2C7620312E1B
:1032C0003220323030352F30372F33312032313AFF
:1032D00033313A33312074676970736F6E204578EB
:1032E0007020240D0A00436D642073656E743A20CB
:1032F0000000171819202122232425262728290019
:00000001FF
