:020000040000FA
:040200003FEF01F0DB
:080218003FEF01F02449643AB4
:1002200020737472696E675F6D2E696E632C762021
:10023000312E3120323030352F30372F32392031C6
:10024000343A35383A35322074676970736F6E20EE
:1002500045787020240D0A000900F550E86632EF59
:1002600001F012001CEC03F02CEF01F00900F55036
:10027000E8663CEF01F01200EE6E36EF01F0D1902F
:10028000EBEC01F008EC03F0CDEC02F0F30ED36ED2
:10029000000EF86E0C0EF76E320EF66E2CEC01F0BE
:1002A00021EC03F00DEC04F022EC02F08382000E4E
:1002B0001D6E1C6A000E1B6EE00E1E6E10EC04F02C
:1002C000AAEF01F08FEF01F0000EFBEC03F01650E7
:1002D0004FEC03F017504FEC03F021EC03F00A0E43
:1002E0001726E86A162216B07BEF01F0040E1C6E8A
:1002F000171E7DEF01F0010E1C6E0F0E1716D89021
:100300001732D8901732D890173217C01BF0C1ECB3
:1003100001F01C1E1B6AC1EC01F064EF01F0B7ECA8
:1003200004F031EC04F00D0E0C1814E0E00E1E6E1B
:1003300010EC04F0070E1C161C50EEEC03F021EC40
:1003400003F01B50EEEC03F021EC03F0C1EC01F0E4
:100350008FEF01F00A0E0D6E000E1B6E1B2AC1EC12
:1003600001F00D2EAEEF01F00A0E0D6E1B06C1EC72
:1003700001F00D2EB6EF01F022EC02F01C2AAAEFDC
:1003800001F01B501E6E1C50070BE83AD890E8365F
:100390001E1210EC04F01200CCEF01F02449643A74
:1003A00020706F7274732E696E632C7620312E323A
:1003B00020323030352F30372F33312032313A333D
:1003C000313A33312074676970736F6E20457870ED
:1003D00020240D0A00000E0EC16E070EB46E949C10
:1003E000948E959E9580959212002449643A2064DB
:1003F000656C61792E696E632C7620312E32203245
:100400003030352F30372F33312032313A33313AD3
:1004100033312074676970736F6E204578702024C3
:100420000D0A0000170E026E020E036E060E046E19
:10043000042E18EF02F0032E16EF02F0022E14EF36
:1004400002F0000C020E026E800E036E700E046E3F
:10045000042E28EF02F0032E26EF02F0022E24EFE6
:1004600002F0000C030E036E080E046E042E36EF2D
:1004700002F0032E34EF02F0000C050E026E130E94
:10048000036E080E046E042E43EF02F0032E41EFBC
:1004900002F0022E3FEF02F0000C050E026E130E6A
:1004A000036E040E046E042E53EF02F0032E51EF80
:1004B00002F0022E4FEF02F0000C040E026E050E49
:1004C000036E040E046E042E63EF02F0032E61EF40
:1004D00002F0022E5FEF02F0000C040E026E050E19
:1004E000036E020E046E042E73EF02F0032E71EF02
:1004F00002F0022E6FEF02F0000C3DEC02F03DEC3A
:1005000002F03DEC02F03DEC02F03DEC02F03DEC7F
:1005100002F03DEC02F03DEC02F03DEC02F03DEC6F
:1005200002F03DEC02F03DEC02F03DEC02F03DEC5F
:1005300002F03DEC02F03DEC02F03DEC02F03DEC4F
:1005400002F03DEC02F0120022EC02F022EC02F08C
:1005500022EC02F022EC02F022EC02F022EC02F09B
:1005600022EC02F022EC02F022EC02F022EC02F08B
:1005700022EC02F022EC02F022EC02F022EC02F07B
:1005800022EC02F022EC02F022EC02F022EC02F06B
:1005900022EC02F022EC02F01200056A052ECEEFEA
:1005A00002F01200400E056E052ED4EF02F012008C
:1005B000200E056E052EDAEF02F01200440E056ED5
:1005C000052EE0EF02F01200010E056E052EE6EF9B
:1005D00002F012002449643A2034323230756172DC
:1005E000742E696E632C7620312E312032303035F6
:1005F0002F30372F32392031343A35383A353220DE
:1006000074676970736F6E2045787020240D0A003E
:10061000AB9EAB9AAB98948E949C000EB06E100E6D
:10062000AF6EB886AC84AC8EAC9CAC9AAC98AB9CEC
:10063000AB8EAC8AAB881200ACA21CEF03F0AD6E9F
:1006400012000D0E1CEC03F00A0E1CEC03F012005D
:100650009EAA28EF03F0AE5012009EAA000CAE50E6
:10066000FF0C2449643A206C636D68657830312E44
:10067000696E632C7620312E3120323030352F30A8
:10068000372F32392031343A35383A3532207467D1
:100690006970736F6E2045787020240D0A00086E13
:1006A000F00E0814096E09385BEC03F00F0E081405
:1006B0005BEC03F01200096E0908D8B067EF03F095
:1006C00062EF03F0370E09241CEC03F01200300E29
:1006D00009241CEC03F012000A50066E4008D8B042
:1006E00079EF03F074EF03F0370E065E063A7EEF03
:1006F00003F0300E065E063A7EEF03F00650000E61
:100700000B50076E4008D8B08EEF03F088EF03F06F
:10071000370E075E0750062694EF03F0300E075E93
:100720000750062694EF03F007504FEC03F00650F5
:1007300012002449643A20646566732E696E632C46
:100740007620312E3220323030352F30372F333172
:100750002032313A33313A33312074676970736F24
:100760006E2045787020240D0A002449643A2076D2
:100770006172732E696E632C7620312E32203230F6
:1007800030352F30372F33312032313A33313A334D
:10079000312074676970736F6E2045787020240073
:1007A0002449643A2073656E6462696E2E696E63D3
:1007B0002C7620312E3120323030352F30372F3209
:1007C000392031343A35383A3532207467697073DC
:1007D0006F6E2045787020240D0A00000C6E080E04
:1007E000016E300E0CBE310E1CEC03F00C46012ED7
:1007F000F1EF03F0120006EC04F0C282C2B2FEEF89
:1008000003F0C450166EC350176E1200D890E83231
:10081000D890E832E880C26E1200BE0EC06E1200A0
:100820002AEC04F01D5019EC04F01E5019EC04F0F1
:100830001200006E080E016E838ED8EC02F00036B6
:10084000D8B0D2EC02F0839EDEEC02F0012E1CEF59
:1008500004F01200838ECDEC02F0839EDEEC02F0F9
:100860001200000EF86E090EF76EA00EF66E2CEC5C
:1008700001F0000EF86E0A0EF76E1E0EF66E2CECEE
:1008800001F028EC03F00C6E200E0C1825E0520E3F
:100890000C1824E0470E0C1823E0420E0C1822E03E
:1008A0002B0E0C1821E02D0E0C1820E0300E0C1829
:1008B0001FE0310E0C181FE0320E0C181FE0410E25
:1008C0000C1823E0450E0C1836E02A0E0C1819E01F
:1008D0002F0E0C1818E012001C2A12001C741200B3
:1008E0001C7012001C7212001B2A12001B06120040
:1008F000000E1D6E1200010E1D6E1200020E1D6E06
:1009000012001D2A12001D061200000EF86E0A0EBB
:10091000F76E720EF66E2CEC01F028EC03F00A6E06
:100920001CEC03F028EC03F00B6E1CEC03F06CECF9
:1009300003F01D6E1200000EF86E0A0EF76E7A0EAE
:10094000F66E2CEC01F028EC03F00A6E1CEC03F0C0
:1009500028EC03F00B6E1CEC03F06CEC03F00F0BB7
:1009600010091E6EC5EC04F010EC04F01200000E2D
:10097000F86E0A0EF76E720EF66E2CEC01F01D503A
:100980004FEC03F021EC03F0120021EC03F01D50BA
:10099000EEEC03F01E50EEEC03F021EC03F012003D
:1009A0003C73706163653E206368616E67652063B8
:1009B0006F6C6F72200D0A2B2020202020202062D7
:1009C00072696768746E6573732075700D0A2D20E7
:1009D0002020202020206272696768746E6573731E
:1009E00020646F776E0D0A522F472F42202020740B
:1009F0006F67676C6520636F6C6F720D0A2A2061E8
:100A00006E64202F206368616E6765206164647284
:100A1000207570206F7220646F776E0D0A00412080
:100A200020202020202020202020202020736574DA
:100A3000206578706C6963697420616464726573A1
:100A4000730D0A4520202020202020202020202057
:100A50002020207365742074617267657427732089
:100A600067726F757020616464726573730D0A0D2F
:100A70000A00416464723A20000047726F7570206A
:100A8000616464723A20000010EE1FF0000EF86EF0
:100A90000C0EF76EB00EF66E0900F5CFE6FFE66AB3
:100AA000E66AE66AF5664CEF05F0000EF86E0B0E8E
:100AB000F76E320EF66E10EE1FF061EC05F05DEF92
:100AC00005F0E6CF1DF0000E1D1804E110EE1FF03A
:100AD000E6CF1DF0040E1C6E77EC05F0020E1C6EC6
:100AE00077EC05F0010E1C6E77EC05F01200E7CFF5
:100AF0000DF00DC01BF0F62A0800F5500F0B0E6E1E
:100B00000D5C13E009E31B06C1EC01F01B500E6203
:100B100083EF05F095EF05F01B2AC1EC01F01B50A7
:100B20000E628CEF05F095EF05F01BC0E7FFE65075
:100B3000120001080400060400080200020001027D
:100B40000100070500010301020002010100030189
:100B5000000605000402000401030800070606075A
:100B60000005000400030400010701020007060657
:100B70000703020300000400010600000000050056
:100B80000003000603030005020703000608000532
:100B9000000500010004010008000602070003032D
:100BA000000800000001030100000000080705081C
:100BB0000501000700000307000603060008030301
:100BC00002000008020100050208030400000700FB
:100BD00007000101040700020100030000000203F6
:100BE00003060200080006030007000306010401D3
:100BF00000010301080200000401020500080702C9
:100C000002000203000008040706030101040000BB
:100C10000205070707050200010700000408060097
:100C20000505000600010503080003050103020491
:100C300001012449643A206D61696E2E61736D2C47
:100C400076204920646F6E2774206B6E6F772C209E
:100C50004356532073657276657220697320627201
:100C60006F6B656E2E2E2E20240D0A002449643AE7
:100C7000206D61696E2E61736D2C7620312E3220CD
:100C8000323030352F30372F33312032313A333153
:100C90003A33312074676970736F6E204578702025
:100CA000240D0A00436D642073656E743A200000C1
:080CB0001012131514161700B1
:00000001FF
